:020000040800F2
:10000000C8140020C515000805610008B1150008D6
:10001000B1150008B1150008B1150008B1150008A8
:10002000000000000000000000000000F9150008BA
:10003000B115000800000000811700080938000809
:10004000ED170008ED170008ED170008ED17000880
:10005000ED170008ED170008ED170008ED17000870
:10006000ED170008ED170008ED170008ED17000860
:10007000ED170008ED170008ED170008ED17000850
:10008000ED170008ED170008ED170008ED17000840
:10009000ED170008ED170008ED170008ED17000830
:1000A000ED170008ED170008ED170008ED17000820
:1000B000ED170008ED170008ED170008ED17000810
:1000C000ED170008ED170008ED170008ED17000800
:1000D000ED170008ED170008ED170008ED170008F0
:1000E000ED170008ED170008ED170008ED170008E0
:1000F000ED170008ED170008ED170008ED170008D0
:10010000ED170008ED170008ED170008ED170008BF
:10011000ED170008ED170008ED170008ED170008AF
:10012000ED170008ED170008ED170008ED1700089F
:10013000ED170008ED170008ED170008ED1700088F
:10014000ED170008ED170008ED170008ED1700087F
:10015000ED170008ED170008ED170008ED1700086F
:10016000ED170008ED170008ED170008ED1700085F
:10017000ED170008ED170008ED170008ED1700084F
:10018000ED170008ED170008ED170008ED1700083F
:10019000ED170008ED170008ED170008ED1700082F
:1001A000ED170008ED170008ED170008ED1700081F
:1001B000ED170008ED170008ED170008ED1700080F
:1001C000ED170008ED170008ED170008ED170008FF
:1001D000ED170008ED170008ED170008ED170008EF
:1001E000ED170008ED170008ED170008ED170008DF
:1001F000ED170008ED170008ED170008ED170008CF
:10020000ED170008ED170008ED170008ED170008BE
:10021000ED170008ED170008ED170008ED170008AE
:04022000ED170008CE
:1002280080F0004002E000BF81F0004142001FBFA3
:100238005FEA410392EA030F7FEA226C7FEA236CAC
:100248006AD04FEA1262D2EB1363C1BFD2184140A1
:1002580048404140B8BF5B42192B88BF704710F037
:10026800004F40F4000020F07F4018BF404211F0DA
:10027800004F41F4000121F07F4118BF494292EA42
:10028800030F3FD0A2F1010241FA03FC10EB0C006E
:10029800C3F1200301FA03F100F0004302D54942FB
:1002A80060EB4000B0F5000F13D3B0F1807F06D3A8
:1002B80040084FEA310102F10102FE2A51D2B1F1A0
:1002C800004F40EBC25008BF20F0010040EA030095
:1002D8007047490040EB0000013A28BFB0F5000F15
:1002E800EDD2B0FA80FCACF1080CB2EB0C0200FACB
:1002F8000CF0AABF00EBC25052421843BCBFD0401A
:100308001843704792F0000F81F4000106BF80F493
:1003180000000132013BB5E74FEA41037FEA226C56
:1003280018BF7FEA236C21D092EA030F04D092F021
:10033800000F08BF0846704790EA010F1CBF002055
:10034800704712F07F4F04D1400028BF40F00040B2
:10035800704712F100723CBF00F50000704700F0D2
:10036800004343F0FE4040F4000070477FEA2262F9
:1003780016BF08467FEA23630146420206BF5FEACA
:10038800412390EA010F40F4800070474FF00003CA
:1003980004E000BF10F0004348BF40425FEA000C91
:1003A80008BF704743F0964301464FF000001CE039
:1003B80050EA010208BF70474FF000030AE000BF8F
:1003C80050EA010208BF704711F0004302D54042CD
:1003D80061EB41015FEA010C02BF8446014600203F
:1003E80043F0B64308BFA3F18053A3F50003BCFA5A
:1003F8008CF2083AA3EBC25310DB01FA02FC634407
:1004080000FA02FCC2F12002BCF1004F20FA02F20D
:1004180043EB020008BF20F00100704702F1200200
:1004280001FA02FCC2F1200250EA4C0021FA02F261
:1004380043EB020008BF20EADC7070474FF0FF0C66
:100448001CEAD0521EBF1CEAD15392EA0C0F93EA61
:100458000C0F6FD01A4480EA010C400218BF5FEA03
:1004680041211ED04FF0006343EA501043EA511176
:10047800A0FB01310CF00040B1F5000F3EBF490070
:1004880041EAD3715B0040EA010062F17F02FD2A74
:100498001DD8B3F1004F40EBC25008BF20F0010057
:1004A800704790F0000F0CF0004C08BF49024CEA6E
:1004B800502040EA51207F3AC2BFD2F1FF0340EA00
:1004C800C250704740F400004FF00003013A5DDC71
:1004D80012F1190FDCBF00F000407047C2F10002B2
:1004E800410021FA02F1C2F1200200FA02FC5FEA9F
:1004F800310040F1000053EA4C0308BF20EADC70E9
:10050800704792F0000F00F0004C02BF400010F45A
:10051800000F013AF9D040EA0C0093F0000F01F007
:10052800004C02BF490011F4000F013BF9D041EA29
:100538000C018FE70CEAD15392EA0C0F18BF93EA2B
:100548000C0F0AD030F0004C18BF31F0004CD8D155
:1005580080EA010000F00040704790F0000F17BFDC
:1005680090F0004F084691F0000F91F0004F14D022
:1005780092EA0C0F01D142020FD193EA0C0F03D17A
:100588004B0218BF084608D180EA010000F000407D
:1005980040F0FE4040F40000704740F0FE4040F458
:1005A800400070474FF0FF0C1CEAD0521EBF1CEAF7
:1005B800D15392EA0C0F93EA0C0F69D0A2EB030215
:1005C80080EA010C49024FEA402037D04FF08053AF
:1005D80043EA111143EA10130CF000408B4238BF74
:1005E8005B0042F17D024FF4000C8B4224BF5B1A82
:1005F80040EA0C00B3EB510F24BFA3EB510340EAD0
:100608005C00B3EB910F24BFA3EB910340EA9C007D
:10061800B3EBD10F24BFA3EBD10340EADC001B01ED
:1006280018BF5FEA1C1CE0D1FD2A3FF650AF8B4291
:1006380040EBC25008BF20F0010070470CF0004C9E
:100648004CEA50207F32C2BFD2F1FF0340EAC250C9
:10065800704740F400004FF00003013A37E792F08A
:10066800000F00F0004C02BF400010F4000F013AE8
:10067800F9D040EA0C0093F0000F01F0004C02BFE3
:10068800490011F4000F013BF9D041EA0C0195E74C
:100698000CEAD15392EA0C0F08D142027FF47DAFE5
:1006A80093EA0C0F7FF470AF084676E793EA0C0FD5
:1006B80004D14B023FF44CAF08466EE730F0004CD3
:1006C80018BF31F0004CCAD130F000427FF45CAF63
:1006D80031F000437FF43CAF5FE700BF4FF0FF3CD1
:1006E80006E000BF4FF0010C02E000BF4FF0010C24
:1006F8004DF804CD4FEA40024FEA41037FEA226CED
:1007080018BF7FEA236C11D001B052EA530C18BF0E
:1007180090EA010F58BFB2EB030088BFC81738BF73
:100728006FEAE17018BF40F0010070477FEA226C61
:1007380002D15FEA402C05D17FEA236CE4D15FEA5D
:10074800412CE1D05DF8040B704700BF8446084691
:100758006146FFE70FB5FFF7C9FF002848BF10F152
:10076800000F0FBD4DF808EDFFF7F4FF0CBF012097
:1007780000205DF808FB00BF4DF808EDFFF7EAFF21
:1007880034BF012000205DF808FB00BF4DF808EDDC
:10079800FFF7E0FF94BF012000205DF808FB00BFD1
:1007A8004DF808EDFFF7D2FF94BF012000205DF857
:1007B80008FB00BF4DF808EDFFF7C8FF34BF012064
:1007C80000205DF808FB00BF4FEA4002B2F1FE4F7F
:1007D8000FD34FF09E03B3EB12620DD94FEA0023FB
:1007E80043F0004310F0004F23FA02F018BF4042D4
:1007F80070474FF00000704712F1610F01D14202BB
:1008080005D110F0004008BF6FF0004070474FF06E
:100818000000704742000ED2B2F1FE4F0BD34FF0EA
:100828009E03B3EB126209D44FEA002343F000435E
:1008380023FA02F070474FF00000704712F1610F81
:1008480001D1420202D14FF0FF3070474FF0000053
:10085800704700BF7BB972B90029BEBF00204FF0B6
:10086800004106E008BF00281CBF6FF000414FF0B0
:10087800FF3000F057B8ADF1080C6DE904CE00293F
:1008880009DB002B1ADB00F062F8DDF804E0DDE993
:10089800022304B07047404261EB4101002B1BDB8F
:1008A80000F055F8DDF804E0DDE9022304B0404229
:1008B80061EB4101524263EB43037047524263EBE1
:1008C800430300F044F8DDF804E0DDE9022304B056
:1008D800404261EB41017047524263EB430300F031
:1008E80036F8DDF804E0DDE9022304B0524263EB98
:1008F8004303704753B94AB9002908BF00281CBFF1
:100908004FF0FF314FF0FF3000F00CB8ADF1080C9C
:100918006DE904CE00F01BF8DDF804E0DDE9022300
:1009280004B07047704700BF430803F05533C01A3E
:1009380000F03333800800F0333018444FF00133AF
:1009480000EB101000F00F305843000E70472DE9EF
:10095800F0478C468E46089E154604461946002BDD
:1009680040F0D080724547D9B2FA82F74FB1C7F14B
:1009780020030EFA07FCBD40BC4020FA03F343EA0B
:100988000C0C4FEA154EA8B2230CBCFBFEF80EFB6C
:1009980018CC08FB00F943EA0C43994528D9EB1811
:1009A80008F1FF3204D2994502D9A8F102022B447A
:1009B800A3EB0903A4B2B3FBFEFC0EFB1C330CFB38
:1009C80000F044EA0344A04214D92C190CF1FF3377
:1009D80004D2A04202D9ACF102032C44241A43EAFF
:1009E80002401EB1FC40002334607360BDE8F0870C
:1009F8004246DDE76346F1E7002A79D0B2FA82F38E
:100A0800002B3FD01946C1F1200302FA01F500FA84
:100A180001F42EFA03F20EFA01FE20FA03F3AFB244
:100A280043EA0E034FEA154EB2FBFEFC0EFB1C20F8
:100A38001A0C0CFB07F842EA004290455AD9AA184A
:100A48000CF1FF3004D2904502D9ACF102002A44DF
:100A5800A2EB08029BB2B2FBFEFC0EFB1C220CFBB5
:100A680007F743EA02439F4246D9EB180CF1FF32DD
:100A780004D29F4202D9ACF102022B44DB1B42EAAA
:100A8800004202E0AEEB020301224FEA154EAFB27C
:100A9800200CB3FBFEFC0EFB1C330CFB07F840EAF2
:100AA800034398452AD9EB180CF1FF3004D2984536
:100AB80002D9ACF102002B44A3EB0803A4B2B3FBA8
:100AC800FEFC0EFB1C330CFB07F744EA0344A74269
:100AD80016D92C190CF1FF3304D2A74202D9ACF174
:100AE80002032C44E41B43EA00400F46114678E712
:100AF8001F2188E76046ABE76246BFE76046DBE751
:100B08006346EFE7734506D916B9002108466DE735
:100B1800C6E9000EF9E7B3FA83F787B9734501D33D
:100B2800824207D8841A6EEB030301209C461EB943
:100B380000215BE73846FAE7C6E9004CF8E7C7F159
:100B4800200CBB4000FA07F422FA0CF520FA0CF14D
:100B5800BA401D432EFA0CF30EFA07FE4FEA154968
:100B680041EA0E011FFA85FEB3FBF9F809FB1830BC
:100B78000B0C08FB0EFA43EA00439A4540D9EB18E0
:100B880008F1FF3004D29A4502D9A8F102002B449B
:100B9800A3EB0A0389B2B3FBF9F809FB183308FB86
:100BA8000EFE41EA03418E452CD9691808F1FF333E
:100BB80004D28E4502D9A8F10203294443EA004031
:100BC800A1EB0E01A0FB02984145CE46434602D355
:100BD80006D14C4504D20138B9EB020E68EB050387
:100BE800002EA5D0B4EB0E0261EB030101FA0CFC58
:100BF80022FA07F3F9404CEA0303C6E9003197E704
:100C08004046C5E74346D9E770B514460646CD17B2
:100C1800A1FB0201002304FB05110A22FFF71AFEBB
:100C28000FA3D3E900230C4D80FB05452046294638
:100C3800FFF710FE06A3D3E90023306029462046BB
:100C4800FFF708FE0023054AFFF704FE726070BD37
:100C580080A8120100000000D8EF2F0040420F00CA
:100C680000209BF35E100000032938B5044604D029
:100C780007293ED06FF0850034E032B3072AF9D156
:100C88005A681D6813463E48D117C5FB0031012B31
:100C980071F1000211DB00F56E1000F65D70181896
:100CA80041F1000132A3D3E90023FFF7D3FD014648
:100CB8002069BDE8384001F0DBBF3248181861F1FF
:100CC80000012BA3D3E90023EFE719882E4B33F853
:100CD800020B814207D82069D1B201F0F3FF002846
:100CE8003FD1002038BD01320B2AF0D16FF015003A
:100CF800F8E74AB3072ABDD15A681D68D1171346C9
:100D08000A461F48C5FB0032B425A3FB0501012B89
:100D180005FB021172F100020EDB1C4BC01841F1F9
:100D2800000115A3D3E90023FFF794FD01462069CC
:100D3800BDE8384001F078BF154BC01861F10001DB
:100D48000DA3D3E90023EFE719880F4B33F8020B03
:100D5800814209D82369D1B2D86905F03EF8002844
:100D6800BFDA6FF00400BDE701320B2AEED1BDE710
:100D78003AA3950000000000D8EF2F000000000003
:100D880040420F00632EB5FFC48A0008ECF7170035
:100D98001408E8FF0000000003292DE9F047144675
:100DA80005D90B1F032B4ED96FF0850024E003698A
:100DB8000229DE68384D21D0032922D0012914BF29
:100DC800B3F90410B3F90610A1FB061630A3D3E952
:100DD800002381FB056530462946FFF73BFD0023CC
:100DE8002E4A206029463046FFF734FD00232B4A5F
:100DF800FFF730FD62600020BDE8F087B3F9081006
:100E0800E2E703F1020802F1180938F9027FA7FBAB
:100E180006731FA3D3E9002387FB057A384651469A
:100E2800FFF718FD002344F8080B1C4A38465146C2
:100E3800FFF710FD0023194AFFF70CFD4C4544F855
:100E4800042CE2D1D7E705690629AE690CD0072939
:100E58000ED03246052914BFB5F91010B5F9121095
:100E68002046FFF7D1FEC6E73246B5F91410F7E77A
:100E78000E3502F118072046324635F9021F0834AC
:100E8800FFF7C2FEA742F6D1B5E700BFAFF3008077
:100E98000010A5D4E80000003AA3950040420F00D6
:100EA80037B50721114A124804F075FA114C0D2183
:100EB800114A104804F06FFA2569A3680D485B6869
:100EC80001A9984720B92B6801985840C0F34030D1
:100ED80001280CBF002201220721054804F04BFA23
:100EE80000214FF4FA7006F08EFDE6E701001A00C3
:100EF8004C7D0008D87D00081100010008B50248A3
:100F080004F049FB002008BDF08A0008014B1B686B
:100F1800184700BF50010020014B1860704700BF00
:100F28005001002030B5044685B00D46102200213E
:100F3800684606F0E7FD02238DF80230044B2A4686
:100F480021466846019303F0D3FF05B030BD00BFCA
:100F5800150F0008034A0020536823F0020353606A
:100F6800704700BF004004E008B5094A136943F020
:100F780000531361416807480C3183681B681BB133
:100F8800984700EAE07008BD6FF05700F9E700BF26
:100F980000080246F87C0008082810B502D9002489
:100FA800204610BD044B53F82040204606F0F7FBBE
:100FB8000028F5D1F3E700BFD885000810B5EFF396
:100FC8001184102383F31288BFF36F8F08480368D6
:100FD8003BB9084A916A41F001019162916AC907D7
:100FE800FCD50133036084F31188BFF36F8F10BD04
:100FF800C40400200008024610B5EFF31184102342
:1010080083F31288BFF36F8F0E490B6873B90122FF
:101018000D4BD3E8EF1F002903D1C3E8E02F0028C8
:10102800F7D184F31188BFF36F8F10BD012B08BF70
:10103800064803F1FF3302BF826A22F0010282628E
:101048000B60EEE7C4040020C0040020000802463C
:1010580007B501F023F90E4B0E4A1A600E4BD3F870
:10106800942042F00402C3F89420D3F8943003F09B
:1010780004030193019B094BDA6A42F00102DA6228
:101088009A6822F002029A6003B05DF804FB00BF80
:10109800C401002000093D00000C02460008024679
:1010A80080B505460E461746984603F037FC0346BA
:1010B80000F0AAFB0446DFF81890424649F80030D1
:1010C80039463046A84754F8090000F03FFB00BFF6
:1010D8000800000008B50348034A0021121A05F069
:1010E80005F808BD2002002084070020074808B53D
:1010F800074A0849121A04F0FBFFBDE808400648F1
:10110800064A0749121A04F0F3BF00BF0000002086
:101118001C0200202C910008000000200000002084
:101128002C91000838B505460C4699B1D1E9012340
:101138000F48096804F02FFAD4E90423E1680D4840
:1011480004F029FAE1690C4804F025FAA1690B4872
:1011580004F021FA012D05D1EFF305810848103973
:1011680004F019FA21462846BDE8384002F0AEBC22
:10117800A98B0008D98B0008098C0008198C000875
:10118800488C000830BFFFF7FDBF00BF2DE9F041D4
:1011980005460B4EDFF82C80324606EB0807CC1BC1
:1011A8002046094906F0A1FCA01942460021083C46
:1011B80006F0A8FC6C6607F10800BDE8F08100BFE6
:1011C80000000000040000001C85000810B5204C39
:1011D800204804F0E0F9A36A990137D51E4804F0C5
:1011E800DAF91E20A36ADA0103D51C4804F0D3F902
:1011F8001F20174CA36ADB0203D5194804F0CBF96A
:101208002020A36A1C0303D5164804F0C4F9212042
:101218000F4CA36A590303D5134804F0BCF92220E4
:10122800A36A9A0303D5114804F0B5F92320084CA2
:10123800A36ADB0303D50E4804F0ADF92420A36AA2
:101248006FEA03436FEA1343A36210BD1D20C9E789
:1012580000ED00E05C8C0008758C0008898C0008A3
:10126800A48C0008CF8C0008EE8C0008148D0008B0
:101278002F8D000870B5244C064624480D4604F00E
:101288008AF9A36AD90435D5214804F084F91720CE
:10129800A36A1A0503D51F4804F07DF918201A4CD3
:1012A800A36A9B050FD51C4804F075F9A16BA36AC6
:1012B800180407D5194804F06EF91EB1A36A23F47F
:1012C8000043A3621920104CA36A590503D514489A
:1012D80004F061F91A20A36ADA050DD5114804F063
:1012E8005AF91B20084A936A43F47F439362002308
:1012F8002B7070BD1620CBE7A36A9B04F2D50A4871
:1013080004F049F91C20EDE700ED00E05B8D0008D2
:10131800728D0008848D0008988D0008B28D000831
:10132800C88D0008E48D0008FD8D000870B5264CB6
:10133800064626480D4604F02EF9A36AD80640D57D
:10134800234804F028F91120A36A190703D5214876
:1013580004F021F912201C4CA36A9A070FD51E48E5
:1013680004F019F9616BA36A1B0607D51B4804F042
:1013780012F91EB1A36A23F08003A3621320124C52
:10138800A36ADE0703D5164804F005F91420A36AFA
:101398009C0603D5134804F0FEF815200A4B9A6AF8
:1013A800D10658BF9A6A9A6A920642BF5A6A22F4CC
:1013B80000525A629A6A42F0FF029A6200232B7026
:1013C80070BD1020C0E700BF00ED00E02D8E0008C2
:1013D800448E0008848D0008788E0008918E0008DD
:1013E800A88E0008FD8D00082DE9F0415D4B0446EC
:1013F8005F6800258AB0C7F3080685F31188BFF334
:101408006F8F02F07F43B3F17F4F06D102F00C03D8
:10141800082B13D1544804F0BEF800252C464FF091
:101428000008F31E8DF80780092B00F28B80DFE897
:1014380003F00A7F837B89898989898710074CBFD4
:101448000C460125EBE74948464E04F0A4F88DF810
:101458000780F36A9A0704D5454804F09CF80023EE
:101468002AE0F36A002B01DA4248F6E7F36A5B00E8
:10147800F5D5414804F08FF87369A26943F4807385
:101488007361BFF34F8FBFF36F8F32F8023C7269FD
:1014980022F480727261BFF34F8FBFF36F8F03F432
:1014A8007F42B2F55F4F27D1DBB2022B24D12168EE
:1014B800324804F070F823689DF80720CAB902AED4
:1014C80004F12007324620686168083403C2BC4230
:1014D8001646F7D1099A002D40D0C2F3080121B968
:1014E8006FEA52226FEA42220992184602A9FFF7D0
:1014F80019FE0AB0BDE8F0811A4B9A6AD2B22AB135
:1015080001200DF10701FFF711FF0FE09A6A12F4AD
:101518007F4F05D001200DF10701FFF7ABFE05E075
:101528009B6AB3F5803F9AD3FFF750FE0346C3E7A3
:1015380000200DF10701E6E700200DF10701ECE7B7
:101548000F488AE70F4B17F4F87F0F490F4808BF79
:101558001946A6F1100204F01EF880E76FF308029E
:10156800C2E700BF00ED00E0F68E0008228F0008F9
:101578003A8F00085C8F00086B8F00088B8F00087B
:10158800A88F0008C88E0008DD8E0008CD8F0008DF
:10159800044B5A6942F010025A615A6922F0080253
:1015A8005A61704700ED00E0EFF30880EFF309811E
:1015B80001B57246FFF718FF01BD00BF0A4880F366
:1015C8000888102080F3118808484FF400614018FB
:1015D80080F30988EFF314800221084380F314880C
:1015E800BFF36F8F00F048F8C81400208807002068
:1015F8001EF0040F0CBFEFF30880EFF30980816938
:1016080011F8021C0229FFD001B5724604F072FDE0
:1016180001BD00BF40B2002807DB01234109034A8E
:1016280000F01F00834042F82130704700E100E0DD
:1016380040B2002801F10101ACBF00F16040064B47
:101648004FEA0111C9B2ABBF00F5614000F00F00CD
:1016580080F800131954704714ED00E0044B054A54
:1016680023F07F039360BFF34F8FBFF36F8F7047F3
:101678000000000800ED00E008B5FFF7EFFF0B4A97
:10168800D2F8883023F47003C2F88830EFF314835B
:1016980023F0040383F31488BFF36F8FFFF71AFD59
:1016A800FFF724FD00F092F802F0D2FA00ED00E016
:1016B80042F8203C009B0B4942F81C3C019B21F05E
:1016C800010142F8183C029B42F8081C42F8143CFD
:1016D8004FF0807342F8043C0023203A0265836689
:1016E800704700BFA910000800B50B4B154698605D
:1016F800426E0A4B0E461A602C4686F30988002073
:10170800034B98472046002100220023014C204724
:1017180021610008A91000083C070020C804002027
:101728001022014B1A61704700ED00E0054B5A6921
:101738009B689A421FBF044A536843F08053536022
:10174800704700BF3C07002000ED00E0084B9B6895
:1017580083420BD1EFF3058343B1064B5A6842F03D
:1017680080525A605A6A22F400425A6206F091B8CE
:101778003C07002000ED00E011498A684FF0300076
:101788001044EFF3098C80E8F01F102080F31288D2
:10179800BFF36F8F0B4F4FF000664A698A603E6057
:1017A800506E094C2060906E0023936680F3118878
:1017B80002F1300090E8F01F8CF3098870470000B0
:1017C8003C07002004ED00E0C8040020002310219D
:1017D8000348C2180133792B82F80013F9D17047F6
:1017E80000E100E008B5EFF30583064A103B02EB81
:1017F800C30152F8330049688847BDE80840FFF73D
:1018080095BF00BFEC7F00080148006870470000E2
:10181800C804002008B5024B1B689847002008BD83
:10182800CC040020034B044A1860937843F0020369
:1018380093707047CC0400205401002008B5064975
:10184800064821F00701C1F1005202F5402203F0D9
:101858004EFE002008BD00BFCF180020D004002095
:1018680007B5084A92E80300CDE9000106488268F6
:10187800126822B16946904703B05DF804FB6FF027
:101888005700F9E71C850008F87C00081F28034664
:101898000CD80120064A00FA03F3D16833EA0101A3
:1018A80005D01269934318BF002070470020704785
:1018B80000200246012300F01F021F2803FA02F34A
:1018C8009DBF044A0020D3606FF0150098BF1361D4
:1018D800704700BF002002462DE9F041054600266A
:1018E8004FF001080E4F6B78F4B2A34201D8BDE85F
:1018F800F0812B781C442046FFF7C8FF68B12046CA
:10190800FFF7D8FF57F834303BB107EBC40204F0B7
:101918001F04516808FA04F098470136E3E700BF4E
:10192800DC040020014B1954704700BFD40100208B
:10193800034670B1B0FA80F2C2F11F02D2B2064972
:101948008856064AD2F880100B43C2F88030FFF759
:1019580061BEFF22F3E700BFD40100200020024649
:10196800034AD2F8803023EA0003C2F88030704777
:1019780000200246032921D8DFE801F0020C1019E3
:101988000F4B1A6822EA00021A605A6822EA00021B
:101998005A6070470A4B1A680243F5E7084B5A68C1
:1019A80002435A601A6822EA00021A607047044B20
:1019B8001A6802431A605A6810435860704700BF9B
:1019C8000020024630B5B0B1B0FA80F3C3F11F036E
:1019D800DBB20B4850F833408C4204D100EBC3050E
:1019E8006D68954205D044B940F8331000EBC30048
:1019F8004260002030BDFF23EBE76FF00F00F9E7EE
:101A0800DC04002060B1B0FA80F3C3F11F03DBB23D
:101A18000021044A42F8331002EBC30251607047B8
:101A2800FF23F5E7DC040020C300074AC0F3810068
:101A3800183052F8202003F018000F238340134079
:101A480023FA00F0704700BF00200246144B30B55F
:101A580098421ED031F07F4316D1C1F38463072525
:101A680041F3406404F00A04C90D1B1B01F0040192
:101A78001430445803EB43039D4024EA050402FA5A
:101A880003F32343435030BD91FAA1F3B3FA83F330
:101A9800E5E743695A4002EA01225A404261F2E707
:101AA80000100246014804F033BC00BFB87E0008AD
:101AB800014804F02DBC00BF9C7E00082DE9F843C6
:101AC8004468066907468846D4F8009040364FF0C7
:101AD800FF324FF0FF33304602F00EFA94F84520FB
:101AE80098F80430D00603F0200108D451B16FF003
:101AF8001504304602F0CCF92046BDE8F88309B158
:101B08009206F4D5012503F01F02C3F34011954056
:101B180043F3401383F47F4445EA8265092AD9F8E0
:101B2800C03088BF45F000752B4033F07F4384F008
:101B3800FF0421D011B398F80030092BD7D198F8B9
:101B48000130042BD3D1B8F80230786873B343F668
:101B5800FF72934246D09A0B032AC8D10024404909
:101B680000F12E0535F8022F0A4392B293421ED097
:101B78000134082CF6D1BAE70029DCD00021484608
:101B880004F050FC002867D1D9F8C03025F07F4216
:101B980023EA0203334A04F01804E2402A401343BC
:101BA8004846C9F8C03004F020FCC4E71C4690F948
:101BB8004120012A14D098F80430022A056803F05D
:101BC8001F0311D0002A92D10121994041EA836173
:101BD800092B2246284688BF41F00071FFF736FFDF
:101BE800002486E70724E2E73A6992F9A6104F1C19
:101BF80001D0A14214D10121994041EA8361092B06
:101C080082F8A64028464FF0000288BF41F00071D4
:101C1800FFF71CFF6B6923F0070323436B61DFE7C2
:101C280092F9A710481C02D0A1427FF460AF0121AD
:101C3800994041EA8361092B82F8A74028466FF052
:101C4800FB0288BF41F00071FFF700FF6B6923F0CA
:101C5800700343EA0413E1E76FF00F0449E700BF9C
:101C680000C0FFFFFFFF0F0038B50F4B0446984236
:101C780003690D461DBF23F47F735B055B0D03F0FD
:101C8800010399420FD0002104F0CCFB58B9064B50
:101C98009C4223691ABF23F4806323F0030323F0D3
:101CA80001032B43236138BD0010024670B5174B62
:101CB8000546984203690C4615BFC3F3094303F070
:101CC8001C03013343F000439942164604D10369CB
:101CD80003F4F07393420FD00021284604F0A2FBCE
:101CE80050B90A4B2A699D4207D0094B013C46EA84
:101CF800044413401C432C6170BD22F4FE7232432D
:101D080024F0004422432A61F6E700BF001002468F
:101D18001FFE00FC10B5204B04689C420BD1A36841
:101D280023F0004323F03F0343F00043A360A3687C
:101D3800002BFCDB10BD40F28241184A1368126880
:101D4800C3F30B038B4222D042F20103B3EB124FD1
:101D58001DD0204604F049FBA36823F0706343F0CC
:101D68001063A360BFF35F8FD4F8C8200C4BD2B2C6
:101D78001343C4F8C830BFF35F8FD4F8C4300121CF
:101D880043F080732046C4F8C43004F04BFBA268CB
:101D9800044B1340C8E700BF00100246004004E0AF
:101DA80000110203C0FFFE7F73B54668044635681C
:101DB800284604F037FBD0B96068FFF7ABFF96F808
:101DC80045309B0602D56068FFF7A4FF09486168A3
:101DD80083680831DB680BB101AA9847284604F0EC
:101DE80004FB002818BF6FF0730002B070BD6FF0DD
:101DF8000F00FAE7F87C00082DE9F04F03698BB073
:101E0800403305460E4606934FF0FF324FF0FF333E
:101E1800069802F071F86B682C691B680293B36826
:101E2800C4F8943077683846C4F8A070FEF77CFD93
:101E3800002284F8A40084F8A520337C84F89C3020
:101E480047B96FF01505069802F022F828460BB03E
:101E5800BDE8F08F1028F4DC1746D5F80490D9F8BF
:101E6800008099F940108F4216DBEAD0B54AD8F8BD
:101E78000C309045D9F82C2003F00C0352F8272099
:101E880008BF04339A4220D00021404604F0CAFA21
:101E980048B16FF00F05D6E7D9F82820D25D9A42ED
:101EA800E4D00137DFE7D9F82C3053F82720A54BC9
:101EB8009845D8F80C3004BF02F1FF3202F00C024A
:101EC80023F00C031343C8F80C304FF000096B687B
:101ED800CDF810901F6803932B69D3F8A080B8F150
:101EE800000F3ED1039B93F942301BB9049B23F0AA
:101EF8007F43BB6294F8A43032685B0012B19289C8
:101F080002FB0333F2689A42C0F01981D5F80490B5
:101F1800777CD9F80080002F40F0B98039464046D8
:101F2800FFF7A2FEB37C002B40F0D280029804F0A9
:101F38005CFA10233746029A04F16405136053686B
:101F480043F0040353600FCF0FC53B6800272B6095
:101F580027663368002B40F0C480204604F0B6F9A9
:101F6800E1E098FAA8F00123B0FA80F083400593E5
:101F780083060793059B049A43EA8063092888BF70
:101F880043F000731A430492039A92F94220012AFB
:101F980025D16D4A6B495FFA89FE52F82E208F428F
:101FA80002F01F0C4FD0920902F00C0207F1300A20
:101FB8005AF80210C3F384638B461F2101FA0CF10F
:101FC80003FA0CF32BEA010119434AF802105F4A9D
:101FD8003B6B52F82E2023F00F0313433B634FF063
:101FE800010A6B6882060AFA00FA4AEA020A93F8BA
:101FF8004520092888BF4AF0007A12071DD5D3F872
:1020080000B0DBF81C303AEA030316D0002158462A
:1020180004F008FA00287FF43CAFDBF81C30099381
:102028003AF07F432BD1CAF3846A012303FA0AFAF0
:10203800099B43EA0A03CBF81C30059B09F1010907
:1020480028EA03084BE70F22B96A02FA0CF221EAE0
:10205800020233F07F410DD1C3F3846303FA0CF31A
:102068001343384A39499362936A51F82E100B4347
:102078009362B4E793FAA3F3B3FA83F3EEE79AFA19
:10208800AAFABAF1000FD0D0BAFA8AFACDE70A2F25
:102098003FF6D7AE01214046FFF7E6FD2C4B53F83B
:1020A80027A099F94330012B06D12A4B52464046C6
:1020B80053F82710FFF7FAFD99F94330022B7FF404
:1020C80031AF012152464046B940FFF7EFFD29E7FD
:1020D80028460021FFF768FE054600283FF426AF92
:1020E800B1E604F178050FCB85E80F006566A4F822
:1020F800887000283FF431AFD4E8EF3FC4E8E27FAE
:10210800002AF9D1A06F642263304FF0000347F131
:102118000001FEF7EFFB0022CDE90001002304F1E6
:10212800080002F077FE4FF0FF324FF0FF3304F162
:10213800500001F0E1FE00B12066256E83E66FF0E5
:102148000B0580E600100246648700082487000813
:10215800F8860008D48600084FF6FF732DE9F74F7C
:10216800466807693468C7F89000A7F8A630D0F821
:102178000480DFF810B14146DBF808A00546DAF81C
:10218800003051F8089B5BB358469847024638BB65
:1021980098F84530DB071AD498F84530980708D5E1
:1021A800DAF8183008F11801D3B1002235489847F9
:1021B800B0B9354B3549364A994518BF0A461368B0
:1021C800D8F8201023F470130B43136008E0DAF8F2
:1021D800183008F110011BB1584698470028DBD089
:1021E8000021706A01AA04F014FC00283EDB019B60
:1021F80000221979186804F01EFC002836DB254AED
:10220800136943F08043136196F84530590732D477
:1022180096F9443073B1A36823F0104323F03F03C9
:1022280043F08053A36096F94430022B02D123680F
:10223800DB04FCD5736803B1984701212846FFF7F2
:10224800B3FD154B01219C42E368204614BF23F4DB
:102258007E6323F45C63E36004F0E4F8BB6C1BB9B1
:1022680007F1400001F014FE002001E0821CC6D0F6
:1022780003B0BDE8F08FA36823F0204323F03F03A9
:10228800A360C5E7F87C00080080024208130246F4
:10229800088302420008024600100246074B1A68EB
:1022A80022F004021A605A68D207FCD40222DA60CB
:1022B8001A6842F001021A60704700BF0004034028
:1022C8000D4A0E49936813F4000308D0936813F479
:1022D80000030CD1D2F8F42051F82300704790681D
:1022E800000207D4D2F8F430C3F30333F4E7936859
:1022F8001B0FF1E79268EFE7000C0246248A0008FA
:1023080038B50B880D46C3F30B03112B144633D88D
:1023180013B96FF085002EE0013B102BF9D801A20C
:1023280052F823F0A1230008D12300081B2300083A
:102338001B2300081B23000871230008B72300088B
:102348001B2300089B2300089B2300089B230008ED
:102358009B2300089B2300089B230008BD2300083B
:10236800A1230008A12300081C4820602B68B3F5AE
:10237800805F2CD2002038BD882B0AD003F67473F6
:10238800C3F30B031C2BC4D8154A22FA03F3DB074B
:10239800BFD5144B1868E8E7FFF792FF4FF42023E6
:1023A800A0FB0303400B40EAC3404008DDE7FFF70A
:1023B80087FFDAE7FFF784FF4FF42023A0FB03032E
:1023C800400B40EAC340D0E74FF40040CDE7C3F3E9
:1023D80013330133B0FBF3F02060CBE7006CDC0271
:1023E80011011111C401002037B5984C984BE269CE
:1023F80002F00C021341D90700F12381FFF760FFB7
:10240800236A944A03F00F03D35C20FA03F5924B36
:10241800DA6842F44032DA60DA681204FCD58F4890
:10242800854201D201F0D0FA884CD4F8943043F0B8
:102438000403C4F89430D4F8943003F004030193EF
:10244800019BFEF7BBFDD4F8F03023F0180343F0EE
:102458001003C4F8F030D4F8F03043F00103C4F8A6
:10246800F030D4F8F0309B07FBD5D4F8F03043F0C7
:102478008003C4F8F030754CD4F8F0301805FBD55B
:10248800FEF7BAFDA36843F40003A360A36823F032
:10249800704343F08043A360236843F04003236004
:1024A800236843F008032360236843F00103236093
:1024B800664B1A685107FCD51A6842F480521A60B4
:1024C8001A689204FCD5DA6902F00C020C2A1AD1B7
:1024D8001A68540507D41A6842F480721A605B4A75
:1024E80013685805FCD5594BDA6922F0030242F00B
:1024F8000102DA61DA6902F00C02042AFAD11A6AD6
:1025080022F00F021A62514B1A6822F080721A6088
:102518009A6A22F0030242F001029A624E4AD16896
:1025280021F48021D160D46814F48044FBD19A6AE4
:10253800464922F470429A62494B4A4A1B699342BF
:10254800B6BF494A102393FBF2F38A6A03EBD373AD
:1025580022F470425B1042EA03338B623E4BDA6826
:1025680042F48022DA60DA685104FCD5FFF7A8FE4D
:102578003E4AA0F57413A3F51063934205D93C4B6A
:10258800394A034493425ED20C24304B9A6A22F4AF
:1025980070629A629A6A22F00C0222439A625A6B1B
:1025A8006FF3080242F04F025A639A6A22F010024F
:1025B8009A625A6B22F4FE0242F480325A639A6A93
:1025C80042F400329A625A6B22F0FE4242F0807264
:1025D8005A639A6A42F480229A621A6842F08072B8
:1025E8001A601A689201FCD5DA6A22F00302DA62EC
:1025F8001A6B22F003021A631A6A22F00F021A6297
:102608001A6A22F070021A621A6A22F4E0621A62E6
:102618005A6A22F070025A62DA6942F00302DA61F9
:102628000A4AD36903F00C030C2BFAD10B4CA542D0
:1026380002D3204601F0C8F900200E4B1C6003B0FD
:1026480030BD0020DCE66FF02100F8E7000C024600
:10265800FEEFFFFF1C910008000802460068890988
:10266800248A00080020A10700127A0000093D0012
:10267800FFED85FFC4010020182808D8054BC3408A
:1026880013F0010F0CBF6FF08500002070476FF04A
:1026980085007047C67E030108B5074805F07FF836
:1026A80038B10648FFF7BEF80448FEF735FC0020AD
:1026B80008BD6FF01200FBE7807E0008C9260008FD
:1026C8000A2838B50446074D04D1AB680D212846C1
:1026D8005B689847AB6803485B68E1B29847204657
:1026E80038BD00BF807E00082DE9F843D0F804907B
:1026F80090460746D9F808000D461E4603F0B8FD77
:10270800B8F5001F044616D12846D9F80840FFF747
:102718008BF984420CD1294603F0AAFD0446FFF741
:102728001FF92046FFF76EF900212046FFF722F92E
:102738000020BDE8F883B8F5800F20D0B6F1806F8F
:1027480019D0B6F1C06F18D0B6F1007F1AD10226A1
:102758003A4620460E49FFF735F9B0B92846D9F868
:10276800081003F08AFD20463146FFF703F920469A
:10277800FFF7DEF8DCE70126EAE70326E8E76FF073
:102788008500D6E76FF01500D3E76FF00F00D0E7AC
:1027980089660008F7B500224368044606691948A7
:1027A8000F46DD68596883680192DB6823B96FF0CA
:1027B8000404204603B0F0BD01AA98470028F6DBC0
:1027C800376206F110074FF0FF324FF0FF333846FB
:1027D80001F092FB2B68204623F001032B6096F84A
:1027E800521003F0DBFF019900F07AF896F85130A7
:1027F80004461BB12B6843F001032B60384601F0F7
:1028080047FBD6E7F87C000870B5044646680569BA
:102818004FF0FF320021284604F0F1FF33682046CC
:102828009847002385F8503085F85230012205F189
:102838001000114604F0E3FF204600F033F8316938
:10284800144B994220D013D8134B99421ED0134BE6
:10285800CB1A594259418900204641F01001FFF72F
:1028680099FF0028A2BF012385F85030002070BDD1
:102878000B4B99420CD003F5C31303F5206399421F
:102888000CBF0A210021E7E70621E5E70221E3E77B
:102898000821E1E740420F00A0860100801A0600E7
:1028A80040E1330013B544680021606901AA04F0CF
:1028B800B0F8002810DB019B00221979186804F091
:1028C800BAF8002808DB0548616883681B680BB103
:1028D800984708B16FF0040002B010BDF87C0008FA
:1028E8002DE9F74F4468036900200193E369E5681F
:1028F800DFF80481DFF80491DFF804A1DFF804B100
:102908000093009B8342019B1A6A34D1C2F34202AE
:10291800012A61D0022A6BD140F2145E4FF4167C72
:102928004FF4FA7740F277160220374B421EB1FB7C
:10293800F2F2B3FBF2F2BCFBF2F4013CFF2C54D8E8
:10294800BEFBF2F808F1FF38B8F1FF0F4DD8B6FB1F
:10295800F2F9B9F10F0F48D8B7FBF2F2013A0F2A92
:1029680043D8023848EA094343EA007343EA02536A
:1029780043EA04231CE00C2303FB00F7D4F818C037
:10298800DFF888E00CEB0706736873451CD014D891
:1029980053451BD05B4514BF002301239B005340C4
:1029A80013F00E0F16D15CF807308B4212D1B368C2
:1029B80000202B6103B0BDE8F08F434508D04B459C
:1029C8000CBF0A230023EAE70623E8E70223E6E729
:1029D8000823E4E7013094E741F25C2E4FF47A6C67
:1029E80040F2E2474FF4FA769EE7013011289DD174
:1029F8006FF01500DEE700BF40E13300404B4C00AC
:102A0800A0860100801A060000CA9A3B40420F00C7
:102A180030B50D29006920D1C488B0F90E5003895A
:102A2800B0F902101B1B491B4B43B0F91010491B8E
:102A380093FBF1F323441946002BB8BFD91DC910E5
:102A48001160594201F0070103F0070358BF4B42D8
:102A5800114900204B43536030BD102919D1047926
:102A6800B0F90A504379B0F900101B1B491B4B43BE
:102A7800B0F90C10491B93FBF1F3234403EBD3711A
:102A88004910002B03F001031160B8BF5B420349F2
:102A9800DFE76FF08500DFE748E8010020A10700C5
:102AA8000B29F0B504D8072914D86FF08500F0BDBC
:102AB8000C29FAD164210069C36893FBF1F3136010
:102AC800C36893FBF1F001FB103342F210714B43E2
:102AD800536010E00B291DBF0839C9B20C46022407
:102AE80008BF002140F2DC5700690B4D0430A142B9
:102AF80002F1080201DD0020D9E730F81130013178
:102B080013FB07F393FBF5F605FB163342F8086C45
:102B180042F8043CEBE700BF40420F0038B5436879
:102B280005460469186804F03AFE58B10020074BBE
:102B38002562A361064B6361064BE36104F114034C
:102B4800236138BD6FF01200FBE700BFFD6D000880
:102B5800416E0008816B0008034630B40C46DA88E1
:102B6800006802F040021979224383689C6984B1A5
:102B7800130207D5012305698B402D682B4218BF26
:102B880082F0C062054BA44630BC134002F0B0721C
:102B980060476FF0570030BC704700BF4000000628
:102BA800F8B544680569E06804F0F9FD002834D0F8
:102BB8001B4B2B64B4F812C0E068217C4CF48032C3
:102BC800012607691CF0010F3B6806FA01F614BFDD
:102BD8003343B343D0F808E03B60DEF80030984751
:102BE80000280EDB0122237C0E4902FA03F3C5E913
:102BF8000B13E06805F128018368DB6913B96FF0EE
:102C08000400F8BD98470028F9DB04F10C004FF0E8
:102C1800B861BDE8F840FFF79FBF6FF01200F0E71A
:102C2800816E0008A36E000838B5054600240E4BD7
:102C380033F8022B914208D1E869E1B202F0DBFED9
:102C4800002808DA6FF0040004E001340D2CEFD1FD
:102C58006FF0150038BD41F21712044B002033F80D
:102C680014305343AB61F5E7A28A0008888A00084C
:102C7800022970B5044617D0102917D0042917D097
:102C8800082917D10325EEB23146E06902F09CFE0F
:102C9800002812DB3D220020094B84F8366033F807
:102CA80015305343E36070BD0025ECE70125EAE7E2
:102CB8000225E8E76FF01500F5E76FF00400F2E78A
:102CC800BC8A000838B50446C0690D4602F0E3FF27
:102CD80000280BDB0A2D88BF41F604234FF00000C3
:102CE8009CBF044B33F81530A38638BD6FF0040041
:102CF800FBE700BFC48A0008F7B5044643681B68B1
:102D0800984725696768E8692C600DF1070102F0AA
:102D18000CFF002804DA6FF00406304603B0F0BD5B
:102D28009DF807306B2BF6D10121E86902F004FF0A
:102D38000028F0DB642004F00CFD0121E86902F0B2
:102D4800C6FE0028E7DB397A2069FFF791FF0028E3
:102D5800E1D139792069FFF7B5FF0028DBD17989FE
:102D68002069FFF761FF06460028D4D1FB880A2BAB
:102D78008EBF41F604230C4A32F813302B8723699F
:102D8800B979D86903F029F80028C4DB0021E8697B
:102D980002F0E9FE0028BEDB0121E86902F042FEEC
:102DA8000028BADAB7E700BFC48A000838B5436814
:102DB80005460469D86804F0F2FC58B10020074BB6
:102DC800E5626362064B2362064BA36204F12003AB
:102DD800E36138BD6FF01200FBE700BF876F0008A2
:102DE800CB6F0008816B00084C2910B50DD162B972
:102DF80011461C880B4B33F8022B944208D0013142
:102E08000829F8D16FF0150010BD6FF08500FBE7B9
:102E18004068C9B203F0B0F80028B4BF6FF00400EE
:102E28000020F1E7DA8A0008034630B40C46DA8855
:102E3800006802F040021979224383689C6984B1D2
:102E4800130207D5012305698B402D682B4218BF53
:102E580082F0C062054BA44630BC134002F0B07249
:102E680060476FF0570030BC704700BF4000000655
:102E7800F8B5446806460569206A04F090FC30B944
:102E8800236A002B0CBF00206FF01200F8BD204B06
:102E9800EE616B62B4F826C0206A94F824104CF4F2
:102EA8008032012607691CF0010F3B6806FA01F61B
:102EB80014BF3343B343D0F808E03B60DEF800307A
:102EC80098470028E2DB012294F82430114902FADD
:102ED80003F3C5E90313206A05F108018368DB6978
:102EE80083B198470028D1DB0021204603F0A1F8E0
:102EF80000280ADB04F120004FF0B861BDE8F84073
:102F0800FFF792BF6FF05700C0E76FF00400BDE70E
:102F180015710008377100080C292DE9F04716468D
:102F280064D14468D0F810A02368D4F814809B6852
:102F3800BAF828901889FDF729FA05462069FDF79F
:102F480025FA01462846FDF72DFB0546BAF92E005D
:102F5800FDF720FA01462846FDF770FA054649FABA
:102F680008F0FDF717FA01462846FDF75DF9E7690D
:102F78000546606AC01BFDF70DFA0446BAF82A0038
:102F8800A0EB090040FA08F0FDF704FA01462046D4
:102F9800FDF708FB01462846FDF750FA0446384677
:102FA800FDF7F8F901462046FDF740F94FF04F418B
:102FB8000546FDF7E1FBE0B94FF09E412846FDF7D5
:102FC800EFFB0446A8B92846FDF7FEFB3060FDF785
:102FD800E1F901462846FDF727F90749FDF72EFADA
:102FE800FDF7F2FB70602046BDE8F0876FF08500C2
:102FF800FAE76FF02100F7E700247449F8B521F0EB
:1030080040010C294668076947D107F114054FF0BC
:10301800FF324FF0FF33284600F078FE314651F872
:10302800040B83681B6898470446002830D1F06871
:103038001B491C4B1C4A884208BF1A461368116872
:1030480003F0E07321F0E0710B4343F400031360D5
:103058001A2004F0F1FC3068836839465B689847A9
:10306800044608B9BB8DFB85F3680D4A934219BF26
:103078000E4B0D4A02F54272D3F8083318BFD3F845
:103088000833116803F0A07321F0E0710B4313605B
:10309800284600F0ADFE2046F8BD6FF08504FAE73B
:1030A80000800242088302420813024600100246CA
:1030B80070B54C29056901D02A2945D105F12406A6
:1030C8004FF0FF324FF0FF33304600F01FFE294625
:1030D80051F8040B83681B689847044600282ED1D2
:1030E800E8681B491B4B1C4A884208BF1A461368EC
:1030F800116803F0E07321F0E0710B43294643F0B7
:103108008073136051F8100B83685B689847044616
:1031180008B92B8F6B87EB680D4A934219BF0F4B89
:103128000D4A02F54272D3F8083318BFD3F80833B2
:10313800116803F4400321F0E0710B43136030463B
:1031480000F056FE204670BD6FF08504FAE700BF18
:103158000080024208830242081302460010024619
:10316800F8B54C294668076901D02A2947D107F1E3
:1031780014054FF0FF324FF0FF33284600F0C6FD2C
:10318800314651F8040B83681B68984704460028A9
:1031980030D1F0681B491C4B1C4A884208BF1A46AC
:1031A8001368116803F0E07321F0E0710B4343F4F6
:1031B80080031360052004F03FFC306883683946BB
:1031C8005B689847044608B9BB8DFB85F3680D4AD0
:1031D800934219BF0E4B0D4A02F54272D3F80833D9
:1031E80018BFD3F80833116803F0C07321F0E071F9
:1031F8000B431360284600F0FBFD2046F8BD6FF036
:103208008504FAE700800242088302420813024656
:1032180000100246F7B5042105690DF10602406861
:1032280004F0B2F80446A8B96F78BDF80600032F79
:10323800288112D8AE78052E0FD8FDF7ABF80623F3
:1032480003FB0766064B53F82610FDF7F7F8FDF762
:10325800E1FAE860204603B0F0BD6FF01504F9E725
:10326800EC88000810B403695A78032A19D89978A9
:10327800052916D80D4CD202615C42EA8112D97830
:1032880012B2FF291B781CBF42EA011242F0020267
:103298000BB142F001020021406810BC92B204F068
:1032A800C1B86FF0150010BC704700BF1691000838
:1032B8001229F8B5054654D1012A04691BD167784B
:1032C8001868032F50D8A678052E4DD8FDF75EF85C
:1032D800062303FB0766264B53F82610FDF762F911
:1032E800FDF798FA0221E0802B69DA886868BDE862
:1032F800F84004F097B8022A17D167781868032FA6
:1033080032D8A678052E2FD8FDF740F8062303FB00
:103318000766174B53F82610FDF744F9FDF77AFABC
:10332800A0802B6901219A88E0E7D2B2132A07D13D
:103338001B68032B18D86370BDE8F840FFF792BFED
:10334800142A04D11B68052B0ED8A370F4E7152A9C
:1033580007D11B68032B01D9FF2B05D12846E37041
:10336800EAE76FF08500F8BD6FF01500FBE700BFD6
:10337800EC880008F8B50C46036941681D68237994
:10338800012B18D0A3F1020EDEF1000646EB0E0663
:10339800B6026279022A96BF474F4FF4005737F8B2
:1033A8001270A279022A09D0042A30D0003B18BF33
:1033B80001231B0306E04FF4C066EAE7B3FA83F380
:1033C8005B091B07E2790968012A0CBF4FF4407CAE
:1033D8004FF0000CA5421DD10A6822F0805222F459
:1033E800B05232431A430A604B6823F440533B43BC
:1033F8004B6043681A68936823F4407343EA0C03EC
:10340800936029684068BDE8F84004F00AB94FF4B1
:103418008053D7E7D1F800E00EF4C06E76451FBFA1
:10342800D1F800E02EF4C06E4EEA06060E60416840
:103438000E68716801F440518F421FBF716821F412
:103448004051394371604168D71E0E68316801F0F8
:1034580010218B421FBF316821F010210B433360CC
:10346800436819688B6803F440739C451FBF8B68D9
:1034780023F4407343EA0C038B6043687E421B6865
:103488007E419968C1F380318E4207D0032A9A6839
:103498000CBF42F4804222F480429A6021682B6873
:1034A800994206D0406804F0BCF808B923682B603C
:1034B800F8BD0020FCE700BFEA8A0008F7B54468B9
:1034C80006466068216983681B68002B00F0A780A6
:1034D8009847002831DB0021606A01AA03F099FAB5
:1034E80000282ADB019B00221979186803F0A3FA47
:1034F800002822DB756833692C681F68236823F06D
:1035080001032360A86804F04AF9002800F08A80C3
:10351800D5E902018368DB6803B1984754E8003FA6
:1035280043F00C0344E80032002AF7D1394630460C
:10353800FFF720FF18B16FF0150003B0F0BD2B7E28
:103548001BB1A36843F00803A3606B7E1BB16368DB
:1035580043F400436360AB7E1BB1636843F480337C
:103568006360EB7E1BB1636843F4003363602B7FB9
:10357800002B42D02D4B9C4225D003F180539C4216
:1035880021D02B4B9C421ED003F180539C421AD071
:10359800284B9C4217D003F180539C4213D0264BF2
:1035A8009C4210D003F180539C420CD0234B9C4288
:1035B80009D0B4F1502F06D0214B9C4203D003F11F
:1035C80080539C42B7D173681A68936843F4804368
:1035D800936023686A7F23F0787343EA4253236039
:1035E8002368AA7F23F4F81343EA02432360EB7F9E
:1035F8001BB1A36843F40043A36095F820301BB1C6
:10360800236843F000532360236843F001032360D9
:10361800E3699A02FCD5E3695B02FCD58DE76FF09C
:1036280057008AE76FF0120087E700BF00380140B3
:103638000044004000480040004C0040005000405A
:10364800002400462DE9F041436802461C680369DE
:103658000D461E680B79012B17D0981E4142414137
:10366800890295F805E0AF79BEF1020F96BF3F4891
:103678004FF4005C30F81EC0022F09D0042F01D08F
:10368800002B6AD04FF4805005E04FF4C061E8E7A2
:10369800002B5FD00020A3F10308B8F1010F04D874
:1036A8006FF085031846BDE8F0810BB1042FF7D001
:1036B800BCF5805F53D0BCF5405F52D0BCF1000F21
:1036C8000CBF012303239E45EAD103F068FF87421C
:1036D800E6D1EB7953B3012B45D1254B9C4225D03C
:1036E80003F180539C4221D0224B9C421ED003F10F
:1036F80080539C421AD0204B9C4217D003F1805330
:103708009C4213D01D4B9C4210D003F180539C4225
:103718000CD01B4B9C4209D0B4F1502F06D0194B4A
:103728009C4203D003F180539C42B9D123682946B7
:1037380023F0010323601046FFF71CFE0346002810
:10374800AED1226842F00102226095E8030086E8C3
:103758000300A7E74FF08050AAE71846A8E7002320
:10376800B1E70223AFE7032BB7D099E7EA8A00084D
:10377800003801400044004000480040004C004030
:1037880000500040002400464FF0E0230D4A99699C
:10379800126818699B69002908BF1146002B08BFE9
:1037A800134610F4803F084801D1994205D20168B8
:1037B800114401604FF0E021096900681044C01A03
:1037C800704700BF38070020340700201022094B3B
:1037D800002083F823204FF47A52074B1A60074BD6
:1037E80043F67F6218604FF0E0235A610722986120
:1037F8001A61704700ED00E0380700203407002008
:10380800684620F007018D4619B5FFF7BDFF14493A
:10381800144B0868D3E90042001942F10002C3E9D9
:10382800000200230B604FF47A530F4AD2E900419B
:10383800001BB0FBF3F043431B1941F10001C2E93F
:103848000031EFF31181102383F31288BFF36F8FD8
:1038580001F0ECF9FDF76AFFBDE8194085467047AD
:103868003407002028020020200200202DE9F04122
:10387800374E89B1421C0AD14FF0E022136923F078
:10388800010313614FF07F433360BDE8F081356871
:10389800012806DC00240AE0431C3568F8D140F210
:1038A8001740B0F5836FA8BF4FF48360441EEFF351
:1038B8001187102383F31288BFF36F8FFFF764FF1C
:1038C8004FF0E0232349D3F818C0D1E9002380182A
:1038D8004FF0000243F10003C1E900031E4B1A60D8
:1038E8001E4B1A68831A2DD44FF47A5E43F67F680C
:1038F80014FB0E841C44B4FBFEF4131A0EFB0433B1
:10390800B3F5806F38BF4FF48063154A934228BFE0
:1039180013464FF0E0223360013B94695361002362
:10392800A4459361ACEB0400D1E900320DD2054403
:10393800EB1842F10002C1E9003287F31188BFF3A6
:103948006F8FA2E74FF48063E3E7C318F1E700BF86
:103958003807002028020020340700202002002019
:10396800809DFF0038B5EFF31185102383F312888B
:10397800BFF36F8F084B1C68084B1B68E41AFFF7EE
:1039880003FF85F31188BFF36F8F4FF47A532044F8
:10399800B0FBF3F038BD00BF280200202002002051
:1039A80038B5EFF31185102383F31288BFF36F8FB7
:1039B800044B1C68FFF7E8FE85F31188BFF36F8F8F
:1039C800204438BD28020020A8B1304BDA6802F440
:1039D8004032B2F5403F10D12D4B984250D92D4B73
:1039E80098424FD92C4B984235D92C4B984216D92E
:1039F8002B4B984231D901207047DA6802F44032E3
:103A0800B2F5003F0DD1274B984239D9264B984241
:103A180038D9264B98421ED9254B9842EBD8032318
:103A28001CE0DB6803F44033B3F5803F0AD1214B37
:103A3800984225D91B4B984224D91F4B98420AD942
:103A4800194BEAE71D4B98421AD91D4B984219D9D0
:103A58001C4B9842CFD8022300E004231A490A6875
:103A680022F00F021A430A600A6802F00F0293421A
:103A78000AD0086800F00F00C01A18BF012070476C
:103A88000023EBE70123E9E700207047000802461E
:103A98000048E8010090D00300D8B8050020A1072D
:103AA8000068890940787D0180F0FA02C0687804CE
:103AB80000E1F50520BCBE0060343C0200127A002B
:103AC8000024F40000366E010020024038B5EFF300
:103AD8001185102383F31288BFF36F8F064B9C6800
:103AE80003F070FE85F31188BFF36F8F2046BDE8A1
:103AF8003840FDF72BBE00BF3C07002038B50A4B05
:103B080053F82040013053F82050A54200D838BD62
:103B1800606830B1037EDB0701D403F028FE083467
:103B2800F3E723689847FAE7648A0008012270B52A
:103B3800284B86B003201A70FFF7E0FF0420FFF738
:103B4800DDFF254C254D2646AE4204F130040FD347
:103B580000F0C0FE204CAC4226D300F0CFFEFDF7AB
:103B68009FF91F4A938923F00103938106B070BD22
:103B780054F80C3C059354F8103C049354F8143C46
:103B8800039354F8183C029354F81C3C019354F8DE
:103B9800203C009354E90A2354E90C0100F046FB49
:103BA80054F8303C5E65CEE7D4E90A23B3F1FF3F11
:103BB80008BFB2F1FF3F05D052EA0301206803D1E4
:103BC80000F076FB3034C6E70649183000F050FFA5
:103BD800F8E700BF82070020B4830008B483000818
:103BE800A0020020BD790008702370B5134E012291
:103BF80003FB0066002386B0CDE904230F2201935E
:103C0800CDE9023214234FF4A0720D4D0D4903FB88
:103C18000055044602FB00110B4B3046009500F09E
:103C280005FB337C2C7423F004033374074B0134F5
:103C380003EBC423EE606B6006B070BD3002002059
:103C48003C070020880F0020D37700088807002051
:103C58007FB50020FFF752FF244B83F30888002428
:103C6800F023234D85F82230EC772C766C76AC76F1
:103C780085F820406B6A43F4E0236B62FDF788FC0B
:103C8800FDF74EFD4FF0FF331A48AB62EB6200F0D0
:103C980005FBFDF7DDF90120FFF730FF0220164D87
:103CA800FFF72CFF00F00EFE144B4FF480625D61AD
:103CB800134B1449059301232846CDE90343CDE965
:103CC8000144114B009400F0B1FA06462B7C2846BB
:103CD80023F004032B7403F035FE2046FFF784FF1E
:103CE80031462846084AFDF7FFFC00BF880F002030
:103CF80000ED00E010030020A00200203C07002097
:103D0800D1900008C8100020353B00082DE9F34188
:103D1800044617461E46EFF31188102383F31288D2
:103D2800BFF36F8F304BC2689B6872B1806898424E
:103D380017D057EA060216D188F31188BFF36F8FA0
:103D48006FF00F0002B0BDE8F08193F90E10013258
:103D58002161C4E9023288F31188BFF36F8F002014
:103D6800F0E72169F3E793F90E1090F90E309942C4
:103D780030DA9942A8BF194603F032FD05462246BB
:103D88004146CDE90076194800F0A8FC0028E6D0A5
:103D9800EFF31186102383F31288BFF36F8FA068A7
:103DA800D0B1236821699C420AD04BB193F90E30F7
:103DB8009942A8BF19466FF07F039942B8BF1946C8
:103DC80003F00EFD40B13146084803F019FE6FF0CC
:103DD8000A00B7E70025D2E7002DF4D186F3118851
:103DE800BFF36F8FF3E700BF3C0700208307002075
:103DF800F8B583680546002B3FD0234A9268934262
:103E08003ED1C368012B03D9013BC3600020F8BD34
:103E1800EFF31187102383F31288BFF36F8F0169C3
:103E2800806803F0DDFC2C68A54207D10023C5E9B2
:103E3800023387F31188BFF36F8FE7E7002CF5D0C3
:103E4800D4E90032002613605A60237CC4E9006676
:103E580023F002032374A66004F1180000F09EFE0C
:103E6800AC6094F90E3020462B61E66603F06AFDDB
:103E78003946064803F0C4FDC8E76FF01500C6E7E9
:103E88004FF0FF30C3E700BF3C0700208307002046
:103E980070B5EFF31186102383F31288BFF36F8F89
:103EA8000468A0421AD0CCB1D4E9003200251360CE
:103EB8005A60237CC4E9005523F002032374A560EB
:103EC80004F1180000F06AFE2046E56603F03AFDAA
:103ED8003146BDE87040074803F092BDD0E9023290
:103EE8009A4218BF0133836086F31188BFF36F8F3E
:103EF80070BD00BF8307002013B5EFF311811024B4
:103F080084F31288BFF36F8F846844B1013C8460E6
:103F180081F31188BFF36F8F002002B010BD52EA01
:103F2800030406D181F31188BFF36F8F6FF00F0080
:103F3800F3E7CDE900230246014800F0CFFBECE7A8
:103F48008307002070B50546EFF31186102383F32D
:103F58001288BFF36F8F00232C68A54218D0BCB11C
:103F6800D4E9003213605A600023227CC4E900338C
:103F780022F002022274A36004F1180000F00EFE81
:103F88006FF00A032046E36603F0DCFC0123E3E755
:103F98000022AA6023B986F31188BFF36F8F70BD22
:103FA8003146BDE87040014803F02ABD8307002070
:103FB8002DE9FF4104461027504EEFF3118887F38F
:103FC8001288BFF36F8F656FF5B9022104F18C0079
:103FD80003F021FC00286CD004F1840500220121A3
:103FE800284603F03AFD0028F8D100234FF0FF32AD
:103FF80002934FF0FF334146CDE90023404804F1D6
:104008007C0200F091FCD8E7A26F2B6895426367A9
:1040180008BFA367D4F88C3043F00203C4F88C308F
:10402800EB6823F0040343F00103EB606B6888F34B
:104038001188BFF36F8F28469847EFF3118887F3ED
:104048001288BFF36F8FEB68D80623F001023DD4C6
:10405800EA60EB689A0717D5306823F00203EB6033
:1040680090B10021036878B1426895423CD1036859
:10407800002933D172683360904200D17360002305
:1040880040F8083BFFF704FFD4F88C3023F0020314
:10409800C4F88C30DB052FD4636F003B18BF0123B5
:1040A80088F31188BFF36F8F002B86D003F010FCC4
:1040B80083E7D4F88C30D90697D5C4F88C0088F3F8
:1040C8001188BFF36F8F04B0BDE8F08123F01103AE
:1040D800EB6005F11000FFF7DBFEBAE70B607368D1
:1040E800984208BF7160CAE701461BB11A681846B2
:1040F8001346B8E71A46FAE70023D1E75C07002021
:1041080083070020F8B5C36804469A070E46C3F330
:1041180040053FD45F073FD40B680BB983680B6039
:10412800E368D80742BFA36802253360376858BFE1
:1041380001253FB31A4B9A683B6F9A421DD103F091
:104148009FFB80F00100C0B2D7F88C30D907C3F3C9
:1041580080021AD5E2B1E8B100232360BB6F73B9BE
:10416800C7E91D44384603F061FBE36843F00403E4
:10417800E3603368A3602846F8BD0020E4E71C60CC
:10418800BC67EFE76FF0150506E06FF0120503E076
:104198001B07E1D56FF00F0500233360EBE700BF85
:1041A8003C0700200146014803F05ABBA003002049
:1041B800F0B50446002089B00E9DC4E91D0004F145
:1041C8007C00C4E91F0004F18400C4E921004DB358
:1041D8002879002840F2011008BF0120C4F88C009B
:1041E80000204FF0FF364FF0FF37CDE90330CDE91F
:1041F8000100CDE9066720460B4B009400F07CF8DF
:1042080055B1296811B1204603F040FB6B791BB109
:10421800A38943F00103A381204600F049F82467ED
:1042280009B0F0BD0120D9E7B93F00082DE9FF41E9
:10423800984600F15803C0E916330E9B0026838187
:104248000423D51D037425F007050D9B0D440F4667
:1042580083732946C0E906668660C6730446FCF780
:1042680095FF0C9B073002930B9B20F007000193EE
:104278000A9B2D1A00932A46434639462046FDF7E5
:1042880017FA054B66659B6803B11B6E28462366C3
:1042980004B0BDE8F08100BF3C070020012303748F
:1042A800838100230366014B986070473C07002018
:1042B80038B50446EFF31185102383F31288BFF352
:1042C8006F8F037C5B070FD5183000F067FC237CE9
:1042D800204623F00403237403F043FB2946BDE87A
:1042E8003840044803F08CBB85F31188BFF36F8F07
:1042F80038BD00BF83070020F0B5002587B00595BD
:10430800109DDDE9127604950F9D044603950E9DD8
:1043180002950D9D01950C9D0095FFF787FFB6F15D
:10432800FF3F08BFB7F1FF3F05D056EA070305D1A5
:104338002046FFF7BDFF204607B0F0BD3A4633469A
:1043480004F11800014900F093FBF4E7BD79000877
:104358006FF00A01084A9368D966084998664B685D
:1043680043F080534B60002383F31188BFF36F8FB2
:104378009368D86E704700BF3C07002000ED00E04E
:1043880038B590F910200146002A037C04DA03F0BE
:104398007F03037403F09EFA0D4D2A4652F8184F16
:1043A800AB68944200D004B9EC688B4207D01A7C01
:1043B800D20604D1DA897F2A01D9A2692AB1A34297
:1043C80002D0204600F0F2FA23466B6138BD00BFE8
:1043D8003C07002070B590F91020037C002A2FDBE1
:1043E800D9062DD11A4C63F07F032246037452F884
:1043F800183FE169934207D1C0E900210860E061F4
:104408000FE09942F8D01B68002BF5D093F90E60A5
:1044180090F90E50AE42F4DD5968C0E900310860E9
:104428005860A569954200D005B9E568A3681A7C6B
:10443800D20606D1DA897F2A03D9AA690AB9636143
:1044480070BDAB4202D0284600F0B0FA6561F7E7CC
:104458003C070020034648B9EFF3058232B9064A03
:1044680051699268914201D0FFF772BF83F31188B6
:10447800BFF36F8F704700BF3C07002038B5184C5A
:10448800A168E0690B68814214BF1A460022496896
:104498000B605960A368E1692AB9124AC3E900218F
:1044A8000B60E3610AE092F90E5093F90E00854221
:1044B80012DD5168C3E900210B605360A569094BFF
:1044C8009D4200D005B9E568A3689D4202D0284600
:1044D80000F06CFA656138BD8A42DED01268DBE70D
:1044E8003C07002054070020002A2DE9F0470CBFA4
:1044F8004FF010094FF00809027C044619EA020F30
:104508000E460F4628D149EA0203D20946D1037460
:10451800B9F1080F48D04FF00008DFF8F0A0534673
:1045280053F8185F9D4200D00DB9DAF80C50DAF84C
:104538000830AB4202D0284600F038FAB9F1100F23
:10454800CAF8145008D0204601F0E3FDB8F1000F76
:1045580002D02F48FFF7A2FE2C4B9B68A3424FD1F5
:10456800EFF30583002B4BD1A289D20711D586F32F
:104578001188BFF36F8F83F31188BFF36F8F042304
:10458800184602DFEFF31187102383F31288BFF375
:104598006F8F3846BDE8F047FFF7DABE03F07F03B8
:1045A800037403F097F9B3E7A36813B1204603F047
:1045B80099F904F1180000F0F1FAA56D04F1580812
:1045C800A84511D04FF0000A75B1284603F08AF9C2
:1045D80005F1180000F0E2FA2846C5F86CA0FFF7CC
:1045E800F9FEA56DA845EFD1084B9B689C4292D176
:1045F800EFF30588B8F1000818BF4FF001088CE701
:1046080086F31188BFF36F8FBDE8F0873C07002061
:104618001003002070B50F4D06462B4653F8184F6F
:104628009C4200D004B9EC68AB681A7CD20604D16D
:10463800DA897F2A01D9A2692AB1A34202D0204689
:1046480000F0B4F923466B613046BDE87040FFF7CF
:1046580001BF00BF3C07002070B5EFF3118610239F
:1046680083F31288BFF36F8F1A4CA168E0690B6857
:10467800814214BF1A46002249680B605960A3683A
:10468800E1692AB9144AC3E900210B60E3610AE031
:1046980092F90E5093F90E00854216DD5168C3E970
:1046A80000210B605360A5690B4B9D4200D005B9F2
:1046B800E568A3689D4202D0284600F077F9656155
:1046C8003046BDE87040FFF743BE8A42DAD0126830
:1046D800D7E700BF3C07002054070020F8B5124B6D
:1046E8000C46DDE9067611469868104A1060EFF32B
:1046F8001182102282F31288BFF36F8F9D682846BB
:1047080003F0FAF8B6F1FF3F08BFB7F1FF3F06D054
:104718003A463346064905F1180000F0A9F9204643
:10472800BDE8F840FFF714BE3C07002064070020EE
:10473800BD790008F8B50446EFF31187102383F319
:104748001288BFF36F8F037C49B203F01F02002A5F
:104758000CBF0126002635D103F07F032A4D0374D0
:1047680003F0B8F82A46037C817363F07F0303746F
:1047780052F8183FE869934207D1C4E90020046061
:10478800EC610DE09842F8D01B68002BF5D093F946
:104798000EC08C45F6DD5968C4E900310C605C60D8
:1047A800AC69944200D004B9EC68AB689C4202D072
:1047B800204600F0FBF86C6187F31188BFF36F8F18
:1047C8003046F8BD9B071CD5856803F083F88173D4
:1047D8002B689D4209D16B68C4E900531C606C606A
:1047E800EAE76A689A42F6D01B68002BF3D093F97F
:1047F8000E208A42F5DD5A68C4E9003214605C6014
:10480800DAE78173D8E700BF3C070020034648B9C0
:10481800EFF3058232B9064A51699268914201D094
:10482800FFF796BD83F31188BFF36F8F704700BF02
:104838003C070020F8B550EA010306460C4603D1B0
:1048480003F046F80020F8BDEFF31187102383F337
:104858001288BFF36F8F174D174BA868186003F0C5
:1048680082F8A868324623461449183000F000F947
:10487800AB6804461A7C9F6642F004021A746FF013
:104888000A02DA660E4A536843F0805353600023E5
:1048980083F31188BFF36F8FAA68D2E90A12B2F1C5
:1048A800004F08BF9942CDD103F019F9201A20EA28
:1048B800E070C8E73C07002064070020BD790008C5
:1048C80000ED00E0024B03F11802C3E9062270472D
:1048D8003C070020EFF31181102383F31288BFF304
:1048E8006F8F054B9A68D37B013BD37381F3118893
:1048F800BFF36F8F704700BF3C070020EFF31180B4
:10490800102383F31288BFF36F8F034B9A68D37B0E
:104918000133D373FFF77EBE3C070020014B986834
:10492800704700BF3C070020D3B5DDE90667089C47
:10493800CDE90067FFF7D2FE1CB1034B9B685B69AA
:10494800236002B0D0BD00BF3C070020027C0346B4
:1049580012F01F0210D10A4988420DD0094908688F
:1049680068B1D9897F2909D893F90E20064B1B68AD
:104978009A42B8BF00207047002070471046704721
:1049880030020020C8010020680700200122044BE3
:10499800C01A044BC0105843034B1A54704700BF49
:1049A80080030020ABAAAAAA8307002070B50C4B8D
:1049B8000C4C1E7CFFF7CAFF182303FB0644054670
:1049C800204600F0EBF80022074B9A553DB12A46E5
:1049D8002046EB170549BDE8704000F049B870BDA6
:1049E8003C07002080030020830700209549000829
:1049F80038B5EFF31185102383F31288BFF36F8F57
:104A08000F4B104A9C681068A04206D1FFF7CEFFF2
:104A180085F31188BFF36F8F38BD00211B7C1160AF
:104A2800094AD35C002BF3D02046FFF78FFF0028FC
:104A3800EED0237CDB0601D1FFF720FD2046E5E719
:104A48003C0700206407002083070020024B1868F9
:104A5800984208BF00207047CC010020034B1B6818
:104A68000BB9FEF77FBF0020704700BF6C0700201E
:104A7800B3F1FF3F08BFB2F1FF3F2DE9F84F0446FD
:104A88009946154698467FD08160EFF31187102329
:104A980083F31288BFF36F8FB9F1000FDFF8F0A02E
:104AA80025DBFFF7DBFF3B4B45191A6849EBE0793B
:104AB800B2FA82F25209521949F100030646DAE9BC
:104AC80000514FF00109C4E90423551943EB0108CB
:104AD800FFF7BCFF0346DFF8C0E0DEF804A0EBB93F
:104AE800C4E900EACAF80040CEF8044028E06FF0B4
:104AF8000103DAE900125B1A4FF0FF3161EB0202A1
:104B08005B1B62EB0902012B72F10001BCBF0123A0
:104B180000224FF00009C0E90432D9E7D3E9041CA8
:104B2800D4E904208A4270EB0C0B24DA891A5A68FB
:104B38006CEB0000C3E90410C4E9003214605C6047
:104B4800FFF784FF84420ED1124B1B685BB9B9F1A1
:104B5800000F02D1FFF782FF0646304602F0A8FF99
:104B68000021FEF783FE87F31188BFF36F8F284675
:104B78004146BDE8F88F521A60EB0C005345C4E972
:104B88000420ADD01B68AAE70025A846EFE700BFC0
:104B9800980300206C070020CC0100200246F8B5DD
:104BA800EFF31185102383F31288BFF36F8F016829
:104BB80051B3FFF74BFF1C4B5B689A4208D0D1E911
:104BC8000434D2E90476DB1944EB0604C1E9043461
:104BD800D2E90031002400264FF0004790420B60D4
:104BE8005960C2E90044C2E9046705D0002085F392
:104BF8001188BFF36F8FF8BDFFF730FF02F058FF41
:104C08002146FEF733FEF1E7D0E90413B3F1004F74
:104C180008BF012904D100204FF00041C2E9040176
:104C28006FF01500E3E700BFCC0100202DE9F84F35
:104C3800DFF8BC900246C9F800000C46FFF706FFF3
:104C480001264FF000472B4D4FEAE278D5E900C125
:104C580058B1D0E904AE524578EB0E031CDABAEB32
:104C680002036EEB0806C0E9043612EB0C0241EBB6
:104C78000801C5E9002100252846C9F8005002F0BE
:104C880017FF2946FEF7F2FD84F31188BFF36F8FF3
:104C9800BDE8F84FFFF7ACBE4FF0000B4FF010081F
:104CA8001AEB0C0341EBEA71C5E90031D0E90112B6
:104CB80003680B605960C0E900BBC0E9046784F36E
:104CC8001188BFF36F8F9047EFF3118488F3128830
:104CD800BFF36F8FFFF7BAFE18B1D0E9042313436F
:104CE800E4D0D9F80020A2EB0A02C9F80020ABE70B
:104CF8006C0700209803002010B5EFF311841023EF
:104D080083F31288BFF36F8FFFF7A8FE0346054AA7
:104D1800D2E90001181841EBE37184F31188BFF35D
:104D28006F8F10BD980300202DE9F0410446EFF382
:104D38001187102383F31288BFF36F8FD0E9042300
:104D48004FF00046B34208BF012A05D087F3118807
:104D5800BFF36F8FBDE8F081D0E90A586A1C48F1AB
:104D68000003022A73F1000324D302F0BCFE2818C2
:104D780048EB0101012871F1000141DB02F0B3FEAB
:104D88006FF00203281848EB010183426FF00043DB
:104D98008B413ADB02F0A7FE6FF001024FF0FF33C0
:104DA8002D1848EB0108521B63EB080320461849ED
:104DB800FFF75EFE236B01332363236A63B187F336
:104DC8001188BFF36F8F20469847EFF311871023A0
:104DD80083F31288BFF36F8F54F8185FA542B5D0DC
:104DE800002DB3D0284602F0C0FD0023EB6687F300
:104DF8001188BFF36F8F2846BDE8F04102F0A2BDCD
:104E08006FF001024FF0FF33D0E700223346CDE7C1
:104E1800314D0008F8B5044616461D46EFF31187D4
:104E2800102383F31288BFF36F8FB5F1FF3F08BFDC
:104E3800B2F1FF3F04D187F31188BFF36F8FF8BD3C
:104E4800FFF7ACFEDDE906010023C4E90A0123638C
:104E580032462B4620460249FFF70AFEEBE700BF21
:104E6800314D000870B50546EFF31184102686F31E
:104E78001288BFF36F8FFFF791FE20B184F311887A
:104E8800BFF36F8F70BD6B6A63B184F31188BFF392
:104E98006F8F28466B6A9847EFF3118486F3128860
:104EA800BFF36F8F05F1180002F094FD0028E5D0DC
:104EB80002F048FD2146BDE87040014802F0A0BD5F
:104EC8008407002007B5074B4FF48062009306491A
:104ED8004FF0FF330548FFF76BF9002003B05DF88A
:104EE80004FB00BF7C8A0008C8140020A00300202F
:104EF8002DE9F04F43688BB0804692460093837843
:104F08009C0740F1F98000250878002800F0F68019
:104F180025280AD04B1C019301354146009B984730
:104F28000028C0F2E3800199EEE74E788B1C252E0D
:104F38000193F1D000270A22B9463C461F2C22D8FB
:104F4800A6F12003102B20D8DFE803F0141F1F1A46
:104F58001F1F1F0B1F1F1F121F171F1F090044F0C1
:104F68000104019B13F8016B0193002EE6D13AE08E
:104F780044F0020444F00404F3E744F00804F0E7C2
:104F880044F01004EDE77F2C24D8A6F13003092B58
:104F980008D860064EBF02FB073744F0200402FB26
:104FA8000939DEE72A2E0DD161065AF8043B53D49D
:104FB800002BA7BF44F020049946C3F1000944F030
:104FC8002804CEE72E2E05D1630600F1978044F021
:104FD8004004C6E76C2E2ED028D8682E32D06A2E10
:104FE80037D04C2E35D0002F46F02003B8BF24F020
:104FF8004004A3F16502BCBF0027A4B2022A01D96C
:10500800612B2BD10AF1070A07279D4E2AF0070AC0
:105018000AF1080A210760D506EB070B34465C4500
:105028005DD1AE1BA9EB0709A21959E1742E98D0DE
:105038007A2E96D0D7E7260648BF44F4007444F089
:1050480080048EE7E00548BF44F4007444F480749B
:1050580087E744F4207484E71F4682E7A6F16302D9
:10506800122A00F2D880DFE812F013004D00D600B3
:10507800D600D600D6004D00D600D600D600D60001
:10508800D600E800D100D600D6001A00D600A0004D
:105098005AF8043B012704AE8DF81030BAE75AF8E5
:1050A800046B784B002E08BF1E4614F0400F3046A4
:1050B80014BF39464FF0FF3102F02CFD0746A9E72F
:1050C80041462020009B984700280FDB013CA7425F
:1050D800F6D34D44A1462D1B9EE74C46F7E74146C3
:1050E80014F8010B009B9847002898DA98F80230CA
:1050F80043F0040388F802304FF0FF3528460BB020
:10510800BDE8F08F220630D5A3052AD50AF1070A93
:105118002AF007039A4659685AF8080B24F0100B2E
:1051280000291FFA8BFB2FDA40424BF4806B61EBAE
:10513800410104AC0A23224602F0F8FC1BF0400FA0
:10514800A0EB040200F08E802BF001049742A4B279
:1051580040F38F80002E40F08E802BF01104A4B213
:105168001DE05AF8040BC117D8E7E0055AF8041BEC
:1051780001D40846F7E7A20547BF48B241F3C0117A
:1051880008B241F3C031C9E750EA0103D1D163063F
:10519800CFD5002FCDD124F011043A46A4B23B4616
:1051A80040F206410C4262D124E024F010040A23A4
:1051B800A4B214F0800243D014F4007117BF0AF1AE
:1051C800070A5AF8040B2AF0070292461CBF5168D6
:1051D8005AF8080B50EA01023ED124F0160B620679
:1051E8001FFA8BFB3CD5002F3AD124F017043A461E
:1051F8003B46A4B221075AD4E10705D5994572DD8B
:10520800A9EB03039F184B469B464AE044F0100461
:1052180010237826CDE7782B04D1C6F1780343F024
:105228001003C6E741462520009B98470028FFF653
:105238005DAF02354146304670E608230026B8E7E0
:1052480014F480715AF8040BC4D014F400711ABF16
:10525800C0B2114680B2BDE724F006041FFA84FBF1
:1052680004AC68E713465C46E10699D52EB90133CC
:10527800C0E71346F8E73B46F6E70233BAE700BF54
:10528800E6900008DF900008CDE902324146202070
:10529800009B98470028FFF629AF0BF1010BDDE9C9
:1052A8000232D945F0DCEB1A03EB0B055B46E1064D
:1052B80027D541463020CDE90232009B9847002887
:1052C800FFF614AFDDE902327EB901352F44791BB0
:1052D8008A4229DB144604AE94BB2A44A9EB03098D
:1052E8001546914440E017468EE702354146304660
:1052F800CDE90232009B98470028DDE90232E5DA61
:10530800F4E640F206410C42E0D014F0020F05F139
:105318000105414614BF2B20202014F4806FCDE9ED
:10532800023218BF2D20E5E7CDE902324146009B45
:105338003020013598470028DDE90232C7DAD5E682
:10534800013C4146CDE90232305D009B9847002878
:10535800DDE90232C0DAC9E641462020009B01356A
:1053680098470028FFF6C2AEA9EB0503002BF3DC33
:10537800D9E500BF7047012303FA01F103691B68EF
:10538800194218BF82F0010212B18368DB6818471E
:1053980083681B69FBE71346F0B4DA02876806697D
:1053A80007D513F4402F1EBF43F3000202F4402236
:1053B8005340012534688D4023F48012DB074CBF2D
:1053C8002C43AC4334603B68F0BC1847836800EB5F
:1053D800C101B3F5004F2CBF51F8220031F812007B
:1053E800704700EBC1018068B0F5004F2CBF41F851
:1053F800223021F812307047012208B5FFF7E6FF86
:10540800D04008BD836800EBC101B3F5004F08D355
:105418004B681AB143F001034B60704723F0010356
:10542800FAE74B881AB143F001034B80704723F029
:105438000103FAE753000122FFF7D3BF08B58368D9
:10544800B3F5004F06D3FFF7D7FF01288CBF002024
:10545800012008BD0020FCE78368B3F5004F28BF92
:105468000139B1FA81F0C0F11F0070472DE9F04110
:1054780004460D46FFF7E2FFB8BB29462046FFF772
:10548800BBFF01462046FFF7E7FF04EB80010E69EA
:1054980096B90122E36882401343E36002220D615A
:1054A8002B4629462046FFF79CFF03222946204623
:1054B800BDE8F041FFF795BF022231462046FFF7CD
:1054C80085FF0746034629462046FFF78AFF032241
:1054D800334629462046FFF784FF39462B462046A7
:1054E800FFF77FFF02223146E1E7BDE8F081B2F520
:1054F800802F34BF042308232DE9F0410026D21A57
:105508008C18CD1D25F0070524F00704641BE4085A
:10551800056021462846AC60EE60FFF79DFF8200DB
:1055280002F11B07FF083146043205F1100002F0B2
:10553800E9FA3A4631462846FFF77CFF33463246B9
:1055480031462846FFF74DFFA4EB070828463146A9
:105558000122FFF757FF42463946FFF76BFF3B46EC
:10556800324639462846FFF73CFF21462846FFF7D2
:1055780061FF4346324621462846FFF732FF21465F
:1055880028460122FFF73EFF3946BDE8F041FFF704
:105598006DBF002070470FB407B504A951F8040B7C
:1055A8000191FBF7BFFC03B05DF804EB04B0704752
:1055B8007047F0B5406802F4C04544680120B5F56D
:1055C800804F00FA01F074D10729C2F343255AD855
:1055D80090FAA0F3B3FA83F30F27266A9B0007FA21
:1055E80003F326EA030690FAA0F3B3FA83F39B00C9
:1055F80005FA03F3334323626568C2F3C0338B4073
:1056080025EA00010B43636090FAA0F1B1FA81F139
:105618000326A568490006FA01F125EA010590FA72
:10562800A0F1B1FA81F1C2F3014349008B4090FA2D
:10563800A0F1B1FA81F12B43A360E568490006FAAD
:1056480001F125EA010590FAA0F1B1FA81F1C2F35E
:10565800814349008B402B43E36090FAA0F3B3FAEF
:1056680083F390FAA0F0B0FA80F021685B0006FAA4
:1056780003F34000C2F3413221EA030382401A4394
:1056880022600020F0BD030A93FAA3F6B6FA86F664
:1056980093FAA3F34FF00F0CB3FA83F3676AB600DB
:1056A8000CFA06F69B0027EA06069D40354365621C
:1056B800A2E7B5F5005FA7D16668C2F3C03505FA61
:1056C80001F126EA000529436160002B9CD0D30232
:1056D8004CBFA061A06297E710B420B14468C068CD
:1056E800A44610BC60474FF0FF3010BC704710B4A0
:1056F80020B10468C068A44610BC60474FF0FF3072
:1057080010BC704737B501230D4601AA2021044675
:10571800FFF7E2FF58B99DF80430202165F3010333
:105728008DF804302046012301AAFFF7E0FF03B0FB
:1057380030BD37B501230D4601AA20210446FFF7E5
:10574800CBFF58B99DF80430202165F382038DF80A
:1057580004302046012301AAFFF7C9FF03B030BD7A
:1057680008B50A4601230F21FFF7B6FF08BD37B574
:1057780001230D4601AA20210446FFF7ADFF58B9C1
:105788009DF80430202165F3C7138DF804302046B6
:10579800012301AAFFF7ABFF03B030BD10B420B15D
:1057A8004468C068A44610BC60474FF0FF3010BC86
:1057B800704710B420B10468C068A44610BC6047A4
:1057C8004FF0FF3010BC704707B50B886A46ADF83C
:1057D80000304B88ADF802308B884521ADF8043095
:1057E8000623FFF7E6FF03B05DF804FB37B5012396
:1057F8000D4601AA60210446FFF7D0FF58B99DF86D
:105808000430602165F301038DF80430204601233C
:1058180001AAFFF7CEFF03B030BD37B501230D460F
:1058280001AA60210446FFF7B9FF58B99DF8043072
:10583800602165F383038DF804302046012301AA13
:10584800FFF7B7FF03B030BD37B501230D4601AAF6
:1058580060210446FFF7A2FF58B99DF80430602183
:1058680065F3C7138DF804302046012301AAFFF71A
:10587800A0FF03B030BD37B501230D4601AA612151
:105888000446FFF78BFF58B99DF80430612165F392
:1058980042038DF804302046012301AAFFF789FF4F
:1058A80003B030BD37B501230D4601AA6221044675
:1058B800FFF774FF58B99DF80430622165F30413AB
:1058C8008DF804302046012301AAFFF772FF03B0C8
:1058D80030BD13B506230C466A466821FFF75EFF04
:1058E800A0B99DF801209DF8003003EB0223238026
:1058F8009DF803209DF8023003EB022363809DF896
:1059080005209DF8043003EB0223A38002B010BDEC
:1059180013B502230C4601AA6E21FFF73FFF30B9E9
:105928009DF805209DF8043003EB0223238002B084
:1059380010BD08B50A4601234F21FFF72FFF08BD08
:1059480037B501230D4601AA60210446FFF726FF5B
:1059580058B99DF80430602165F345138DF804307B
:105968002046012301AAFFF724FF03B030BD37B555
:1059780001230D4601AA62210446FFF70FFF58B91B
:105988009DF80430622165F300038DF80430204649
:10599800012301AAFFF70DFF03B030BD10B420B1F9
:1059A8004468C068A44610BC60474FF0FF3010BC84
:1059B800704710B420B10468C068A44610BC6047A2
:1059C8004FF0FF3010BC704737B501230D4601AAD0
:1059D80010210446FFF7E2FF58B99DF80430102162
:1059E80065F383038DF804302046012301AAFFF7ED
:1059F800E0FF03B030BD37B501230D4601AA1121E0
:105A08000446FFF7CBFF58B99DF80430112165F320
:105A180003038DF804302046012301AAFFF7C9FFCC
:105A280003B030BD37B501230D4601AA1221044643
:105A3800FFF7B4FF58B99DF80430122165F38613B7
:105A48008DF804302046012301AAFFF7B2FF03B006
:105A580030BD13B506230C466A462221FFF79EFF88
:105A6800A0B99DF801209DF8003003EB02232380A4
:105A78009DF803209DF8023003EB022363809DF814
:105A880005209DF8043003EB0223A38002B010BD6B
:105A980013B506230C466A462821FFF77FFFA0B9F5
:105AA8009DF801209DF8003003EB022323809DF828
:105AB80003209DF8023003EB022363809DF8052044
:105AC8009DF8043003EB0223A38002B010BD37B564
